{
  "address": "0xaDD4f556EF7eBFAb4344e8123420a74f65585248",
  "abi": [
    {
      "inputs": [],
      "name": "ZamaProtocolUnsupported",
      "type": "error"
    },
    {
      "anonymous": false,
      "inputs": [
        {
          "indexed": true,
          "internalType": "uint256",
          "name": "jobId",
          "type": "uint256"
        },
        {
          "indexed": true,
          "internalType": "address",
          "name": "applicant",
          "type": "address"
        }
      ],
      "name": "ApplicantEvaluated",
      "type": "event"
    },
    {
      "anonymous": false,
      "inputs": [
        {
          "indexed": true,
          "internalType": "uint256",
          "name": "jobId",
          "type": "uint256"
        },
        {
          "indexed": true,
          "internalType": "address",
          "name": "applicant",
          "type": "address"
        }
      ],
      "name": "ApplicationSubmitted",
      "type": "event"
    },
    {
      "anonymous": false,
      "inputs": [
        {
          "indexed": true,
          "internalType": "address",
          "name": "company",
          "type": "address"
        },
        {
          "indexed": false,
          "internalType": "string",
          "name": "name",
          "type": "string"
        }
      ],
      "name": "CompanyProfileUpdated",
      "type": "event"
    },
    {
      "anonymous": false,
      "inputs": [
        {
          "indexed": true,
          "internalType": "address",
          "name": "company",
          "type": "address"
        },
        {
          "indexed": false,
          "internalType": "string",
          "name": "name",
          "type": "string"
        }
      ],
      "name": "CompanyRegistered",
      "type": "event"
    },
    {
      "anonymous": false,
      "inputs": [
        {
          "indexed": true,
          "internalType": "address",
          "name": "individual",
          "type": "address"
        },
        {
          "indexed": false,
          "internalType": "uint32",
          "name": "version",
          "type": "uint32"
        }
      ],
      "name": "IndividualProfileUpdated",
      "type": "event"
    },
    {
      "anonymous": false,
      "inputs": [
        {
          "indexed": true,
          "internalType": "address",
          "name": "individual",
          "type": "address"
        }
      ],
      "name": "IndividualRegistered",
      "type": "event"
    },
    {
      "anonymous": false,
      "inputs": [
        {
          "indexed": true,
          "internalType": "uint256",
          "name": "jobId",
          "type": "uint256"
        },
        {
          "indexed": true,
          "internalType": "address",
          "name": "company",
          "type": "address"
        },
        {
          "indexed": false,
          "internalType": "string",
          "name": "title",
          "type": "string"
        }
      ],
      "name": "JobCreated",
      "type": "event"
    },
    {
      "inputs": [
        {
          "internalType": "uint256",
          "name": "",
          "type": "uint256"
        },
        {
          "internalType": "address",
          "name": "",
          "type": "address"
        }
      ],
      "name": "applications",
      "outputs": [
        {
          "internalType": "euint32",
          "name": "salary",
          "type": "bytes32"
        },
        {
          "internalType": "euint32",
          "name": "experience",
          "type": "bytes32"
        },
        {
          "internalType": "euint32",
          "name": "education",
          "type": "bytes32"
        },
        {
          "internalType": "euint32",
          "name": "sex",
          "type": "bytes32"
        },
        {
          "internalType": "uint32",
          "name": "profileVersion",
          "type": "uint32"
        },
        {
          "internalType": "euint256",
          "name": "contactEmail",
          "type": "bytes32"
        },
        {
          "internalType": "euint32",
          "name": "contactPhone",
          "type": "bytes32"
        },
        {
          "internalType": "ebool",
          "name": "eligible",
          "type": "bytes32"
        },
        {
          "internalType": "bool",
          "name": "evaluated",
          "type": "bool"
        },
        {
          "internalType": "bool",
          "name": "applied",
          "type": "bool"
        }
      ],
      "stateMutability": "view",
      "type": "function"
    },
    {
      "inputs": [
        {
          "internalType": "uint256",
          "name": "jobId",
          "type": "uint256"
        }
      ],
      "name": "applyForJob",
      "outputs": [],
      "stateMutability": "nonpayable",
      "type": "function"
    },
    {
      "inputs": [
        {
          "internalType": "address",
          "name": "",
          "type": "address"
        }
      ],
      "name": "companies",
      "outputs": [
        {
          "internalType": "string",
          "name": "name",
          "type": "string"
        },
        {
          "internalType": "string",
          "name": "industry",
          "type": "string"
        },
        {
          "internalType": "string",
          "name": "website",
          "type": "string"
        },
        {
          "internalType": "string",
          "name": "contactEmail",
          "type": "string"
        },
        {
          "internalType": "string",
          "name": "location",
          "type": "string"
        },
        {
          "internalType": "address",
          "name": "owner",
          "type": "address"
        },
        {
          "internalType": "bool",
          "name": "exists",
          "type": "bool"
        }
      ],
      "stateMutability": "view",
      "type": "function"
    },
    {
      "inputs": [],
      "name": "confidentialProtocolId",
      "outputs": [
        {
          "internalType": "uint256",
          "name": "",
          "type": "uint256"
        }
      ],
      "stateMutability": "view",
      "type": "function"
    },
    {
      "inputs": [
        {
          "internalType": "string",
          "name": "title",
          "type": "string"
        },
        {
          "internalType": "string",
          "name": "location",
          "type": "string"
        },
        {
          "internalType": "uint32",
          "name": "workPreference",
          "type": "uint32"
        },
        {
          "internalType": "uint32",
          "name": "primaryField",
          "type": "uint32"
        },
        {
          "internalType": "externalEuint32",
          "name": "extMaxSalary",
          "type": "bytes32"
        },
        {
          "internalType": "externalEuint32",
          "name": "extMinExperience",
          "type": "bytes32"
        },
        {
          "internalType": "externalEuint32",
          "name": "extMinEducation",
          "type": "bytes32"
        },
        {
          "internalType": "externalEuint32",
          "name": "extPreferredSex",
          "type": "bytes32"
        },
        {
          "internalType": "bytes",
          "name": "attestation",
          "type": "bytes"
        },
        {
          "internalType": "uint256",
          "name": "applicationDeadline",
          "type": "uint256"
        },
        {
          "internalType": "uint32",
          "name": "vacancyCount",
          "type": "uint32"
        }
      ],
      "name": "createJob",
      "outputs": [
        {
          "internalType": "uint256",
          "name": "jobId",
          "type": "uint256"
        }
      ],
      "stateMutability": "nonpayable",
      "type": "function"
    },
    {
      "inputs": [
        {
          "internalType": "uint256",
          "name": "jobId",
          "type": "uint256"
        },
        {
          "internalType": "address[]",
          "name": "applicants",
          "type": "address[]"
        }
      ],
      "name": "evaluateAllApplicants",
      "outputs": [],
      "stateMutability": "nonpayable",
      "type": "function"
    },
    {
      "inputs": [
        {
          "internalType": "address",
          "name": "",
          "type": "address"
        }
      ],
      "name": "individuals",
      "outputs": [
        {
          "internalType": "euint32",
          "name": "expectedSalary",
          "type": "bytes32"
        },
        {
          "internalType": "euint32",
          "name": "experience",
          "type": "bytes32"
        },
        {
          "internalType": "euint32",
          "name": "education",
          "type": "bytes32"
        },
        {
          "internalType": "euint32",
          "name": "sex",
          "type": "bytes32"
        },
        {
          "internalType": "euint256",
          "name": "contactEmail",
          "type": "bytes32"
        },
        {
          "internalType": "euint32",
          "name": "contactPhone",
          "type": "bytes32"
        },
        {
          "internalType": "uint32",
          "name": "version",
          "type": "uint32"
        },
        {
          "internalType": "bool",
          "name": "exists",
          "type": "bool"
        }
      ],
      "stateMutability": "view",
      "type": "function"
    },
    {
      "inputs": [
        {
          "internalType": "uint256",
          "name": "",
          "type": "uint256"
        }
      ],
      "name": "jobs",
      "outputs": [
        {
          "internalType": "address",
          "name": "company",
          "type": "address"
        },
        {
          "internalType": "string",
          "name": "title",
          "type": "string"
        },
        {
          "internalType": "string",
          "name": "location",
          "type": "string"
        },
        {
          "internalType": "uint32",
          "name": "workPreference",
          "type": "uint32"
        },
        {
          "internalType": "uint32",
          "name": "primaryField",
          "type": "uint32"
        },
        {
          "internalType": "euint32",
          "name": "maxSalary",
          "type": "bytes32"
        },
        {
          "internalType": "euint32",
          "name": "minExperience",
          "type": "bytes32"
        },
        {
          "internalType": "euint32",
          "name": "minEducation",
          "type": "bytes32"
        },
        {
          "internalType": "euint32",
          "name": "preferredSex",
          "type": "bytes32"
        },
        {
          "internalType": "uint256",
          "name": "applicationDeadline",
          "type": "uint256"
        },
        {
          "internalType": "uint32",
          "name": "vacancyCount",
          "type": "uint32"
        },
        {
          "internalType": "bool",
          "name": "exists",
          "type": "bool"
        }
      ],
      "stateMutability": "view",
      "type": "function"
    },
    {
      "inputs": [],
      "name": "nextJobId",
      "outputs": [
        {
          "internalType": "uint256",
          "name": "",
          "type": "uint256"
        }
      ],
      "stateMutability": "view",
      "type": "function"
    },
    {
      "inputs": [
        {
          "internalType": "string",
          "name": "name",
          "type": "string"
        },
        {
          "internalType": "string",
          "name": "industry",
          "type": "string"
        },
        {
          "internalType": "string",
          "name": "website",
          "type": "string"
        },
        {
          "internalType": "string",
          "name": "contactEmail",
          "type": "string"
        },
        {
          "internalType": "string",
          "name": "location",
          "type": "string"
        }
      ],
      "name": "registerCompany",
      "outputs": [],
      "stateMutability": "nonpayable",
      "type": "function"
    },
    {
      "inputs": [
        {
          "internalType": "externalEuint32",
          "name": "extSalary",
          "type": "bytes32"
        },
        {
          "internalType": "externalEuint32",
          "name": "extExperience",
          "type": "bytes32"
        },
        {
          "internalType": "externalEuint32",
          "name": "extEducation",
          "type": "bytes32"
        },
        {
          "internalType": "externalEuint32",
          "name": "extSex",
          "type": "bytes32"
        },
        {
          "internalType": "externalEuint256",
          "name": "extContactEmail",
          "type": "bytes32"
        },
        {
          "internalType": "externalEuint32",
          "name": "extContactPhone",
          "type": "bytes32"
        },
        {
          "internalType": "bytes",
          "name": "attestation",
          "type": "bytes"
        }
      ],
      "name": "registerIndividual",
      "outputs": [],
      "stateMutability": "nonpayable",
      "type": "function"
    },
    {
      "inputs": [
        {
          "internalType": "string",
          "name": "name",
          "type": "string"
        },
        {
          "internalType": "string",
          "name": "industry",
          "type": "string"
        },
        {
          "internalType": "string",
          "name": "website",
          "type": "string"
        },
        {
          "internalType": "string",
          "name": "contactEmail",
          "type": "string"
        },
        {
          "internalType": "string",
          "name": "location",
          "type": "string"
        }
      ],
      "name": "updateCompanyProfile",
      "outputs": [],
      "stateMutability": "nonpayable",
      "type": "function"
    },
    {
      "inputs": [
        {
          "internalType": "externalEuint32",
          "name": "extSalary",
          "type": "bytes32"
        },
        {
          "internalType": "externalEuint32",
          "name": "extExperience",
          "type": "bytes32"
        },
        {
          "internalType": "externalEuint32",
          "name": "extEducation",
          "type": "bytes32"
        },
        {
          "internalType": "externalEuint32",
          "name": "extSex",
          "type": "bytes32"
        },
        {
          "internalType": "externalEuint256",
          "name": "extContactEmail",
          "type": "bytes32"
        },
        {
          "internalType": "externalEuint32",
          "name": "extContactPhone",
          "type": "bytes32"
        },
        {
          "internalType": "bytes",
          "name": "attestation",
          "type": "bytes"
        }
      ],
      "name": "updateIndividualProfile",
      "outputs": [],
      "stateMutability": "nonpayable",
      "type": "function"
    }
  ],
  "transactionHash": "0x3b1e8027cb9b3eb64def052564d70f8c35f2c15fafc86a7a8537d0295257b946",
  "args": [],
  "numDeployments": 1,
  "solcInputHash": "69199de15b4c65e467dbcbf4f4be5279",
  "bytecode": "0x6080604052346200012f576200001462000167565b5046600103620000ee576200002862000167565b506200003362000133565b5f81525f60208201525f60408201525b60018060a01b036040818351169260018060a01b0319937f9e7b61f58c47dc699ac88507c4f5bb9f121c03808c5676a8078fe583e46497009085825416179055826020820151167f9e7b61f58c47dc699ac88507c4f5bb9f121c03808c5676a8078fe583e464970190858254161790550151167f9e7b61f58c47dc699ac88507c4f5bb9f121c03808c5676a8078fe583e464970291825416179055604051612ac19081620001e78239f35b4662aa36a70362000109576200010362000183565b62000043565b46617a69036200011d576200010362000183565b6040516373cac13b60e01b8152600490fd5b5f80fd5b60405190606082016001600160401b038111838210176200015357604052565b634e487b7160e01b5f52604160045260245ffd5b6200017162000133565b905f82525f60208301525f6040830152565b6200018d62000167565b506200019862000133565b73f0ffdc93b7e186bc2f8cb3daa75d86d1930a433d81527392c920834ec8941d2c77d188936e1f7a6f49c127602082015273be0e383937d564d7ff0bc3b46c51f0bf8d5c311a60408201529056fe60806040526004361015610011575f80fd5b5f3560e01c8063180aedf3146120735780631df7e9a014611a50578063355e6ce81461196b57806342e80b8d1461147757806366852374146113be578063707b4998146111515780637d33619714610bf85780637ff61c58146107005780638927b030146106de578063944a2cc014610650578063b0c2aa5e14610634578063e0c94ae5146103205763e4d78dcb146100a8575f80fd5b3461031c576100b636612308565b939195949095335f52600196602098888a5260ff600660405f2001548b1c166102cd576100e436888461242e565b6100ed91612722565b966100f936888461242e565b61010291612722565b9261010e36888461242e565b61011791612722565b9361012336888461242e565b61012c91612722565b9461013836888461242e565b6101419161282e565b95369061014d9261242e565b61015691612722565b9460405161016381612191565b8181528880820191848352604081018681526060820188815260808301908a825260a08401928c84528d60c08601978189528160e0880198818a52335f525260405f20965187555190860155516002850155516003840155516004830155516005820155600601915163ffffffff1663ffffffff19835416178255511515610203919064ff00000000825491151560201b169064ff000000001916179055565b61020d30826128f1565b61021730836128f1565b61022130846128f1565b61022b30856128f1565b61023530866128f1565b61023f30876128f1565b33610249916128f1565b33610253916128f1565b3361025d916128f1565b33610267916128f1565b33610271916128f1565b3361027b916128f1565b60405190337f63383eca943047b2af41218b68c30b9dc5ac3d7ef78e6ec508b75b62344ccb505f80a2815233917f91dc06cd8898708d38e986a8e345ffa874b4e25b4f763a73ffcdbff8934a76d991a2005b60405162461bcd60e51b8152600481018b9052602160248201527f496e646976696475616c2070726f66696c6520616c72656164792065786973746044820152607360f81b6064820152608490fd5b5f80fd5b3461031c57602036600319011261031c57335f52600160205261034f60ff600660405f20015460201c1661256e565b6004355f526003602052600860405f2061037260ff600983015460201c166124ea565b01544210156105ef57335f52600160205260405f2060068101549060ff8260201c16156105aa576004355f52600460205260405f20335f5260205260ff600860405f20015460081c166105655780546001820154600283015491600384015494600485015460058601546103e46129f4565b91604051938461014081011067ffffffffffffffff6101408701111761055157610527996008966101408701604052865260208601978852604086019889526060860190815263ffffffff608087019216825260a0860192835260c0860193845260e086019485526101008601985f8a5261012087019860018a526004355f52600460205260405f20335f5260205260405f209751885551600188015551600287015551600386015563ffffffff6004860191511663ffffffff1982541617905551600584015551600683015551600782015501915115159060ff61ff0084549251151560081b1692169061ffff1916171790556104e4815430906128f1565b6104f23060018301546128f1565b6105003060028301546128f1565b61050e3060038301546128f1565b61051c3060048301546128f1565b6005309101546128f1565b336004357f394b2f46e841d2b670718e98a15dfb76853abc5a8761449c74e9cba62d9015215f80a3005b634e487b7160e01b5f52604160045260245ffd5b60405162461bcd60e51b815260206004820152600f60248201527f416c7265616479206170706c69656400000000000000000000000000000000006044820152606490fd5b60405162461bcd60e51b815260206004820152601060248201527f50726f66696c65207265717569726564000000000000000000000000000000006044820152606490fd5b60405162461bcd60e51b815260206004820152601360248201527f4170706c69636174696f6e7320636c6f736564000000000000000000000000006044820152606490fd5b3461031c575f36600319011261031c5760205f54604051908152f35b3461031c57602036600319011261031c576001600160a01b036106716122f2565b165f52600160205261010060405f2060ff815491600181015490600281015460038201546004830154916006600585015494015494604051978852602088015260408701526060860152608085015260a084015263ffffffff811660c084015260201c16151560e0820152f35b3461031c575f36600319011261031c5760206106f86126f3565b604051908152f35b3461031c5761070e3661234f565b95949192939096335f52600260205261073360ff600560405f20015460a01c166123e2565b335f52600260205260ff600560405f20015460a01c1615610bb357335f52600260205260405f2067ffffffffffffffff8a116105515761077d8a6107778354612159565b83612474565b5f8a601f8111600114610b4e57806107a9925f91610b43575b508160011b915f199060031b1c19161790565b90555b335f5260026020526001958660405f20019167ffffffffffffffff8211610551576107e1826107db8554612159565b85612474565b5f90601f8311600114610ae25761080f92915f9183610ad7575b50508160011b915f199060031b1c19161790565b90555b335f526002602052600260405f20019167ffffffffffffffff82116105515761083f826107db8554612159565b5f90601f8311600114610a765761086c92915f9183610a6b5750508160011b915f199060031b1c19161790565b90555b335f526002602052600360405f20019167ffffffffffffffff82116105515761089c826107db8554612159565b5f90601f8311600114610a0a576108c992915f91836109ff5750508160011b915f199060031b1c19161790565b90555b335f526002602052600460405f20019267ffffffffffffffff8311610551576108ff836108f98654612159565b86612474565b5f91601f84116001146109755750827fca9b9d27516abdc20d7f6402e59741120fd77a2c113f2c89d67b614b9b1301db95936109659593610954935f9261096a5750508160011b915f199060031b1c19161790565b90555b6040519182913395836124c3565b0390a2005b0135905088806107fb565b929190601f19831691855f5260205f20925f5b8181106109e95750917fca9b9d27516abdc20d7f6402e59741120fd77a2c113f2c89d67b614b9b1301db9795939185610965989694106109d0575b505050811b019055610957565b01355f19600384901b60f8161c191690558780806109c3565b8383013585559386019360209283019201610988565b0135905089806107fb565b90849291601f19831691855f5260205f20925f5b818110610a5357508411610a3a575b505050811b0190556108cc565b01355f19600384901b60f8161c19169055888080610a2d565b82840135855588969094019360209283019201610a1e565b013590508b806107fb565b90869291601f19831691855f5260205f20925f5b818110610abf57508411610aa6575b505050811b01905561086f565b01355f19600384901b60f8161c191690558a8080610a99565b8284013585558a969094019360209283019201610a8a565b013590508d806107fb565b90889291601f19831691855f5260205f20925f5b818110610b2b57508411610b12575b505050811b019055610812565b01355f19600384901b60f8161c191690558c8080610b05565b8284013585558c969094019360209283019201610af6565b90508d01358e610796565b50815f5260205f20905f5b8d601f198e168210610b9b5750508b601f19811610610b82575b505060018a811b0190556107ac565b8c01355f1960038d901b60f8161c191690558b80610b73565b60018394602093948493013581550193019101610b59565b60405162461bcd60e51b815260206004820152601e60248201527f436f6d70616e792070726f66696c6520646f6573206e6f7420657869737400006044820152606490fd5b3461031c57610c063661234f565b96919590949294335f526020926002845260ff600560405f20015460a01c1661110c576040519660e088019367ffffffffffffffff968986108887111761055157610c70610c8d948f938f610c7e95610c6791610c9c9b604052369161242e565b8d52369161242e565b98878b01998a52369161242e565b9860408901998a52369161242e565b9760608701988952369161242e565b926080850193845260a085019633885260c0860196600192838952335f526002855260405f20975180519087821161055157610ce282610cdc8c54612159565b8c612474565b8690601f83116001146110ae57610d0f92915f91836110455750508160011b915f199060031b1c19161790565b88555b5180518885019187821161055157610d2e826107db8554612159565b8690601f831160011461105057610d5b92915f91836110455750508160011b915f199060031b1c19161790565b90555b518051600288019186821161055157610d7b826107db8554612159565b8590601f8311600114610fe757610da892915f9183610fdc5750508160011b915f199060031b1c19161790565b90555b518051600387019185821161055157610dc8826107db8554612159565b8490601f8311600114610f7e57610df592915f9183610eda5750508160011b915f199060031b1c19161790565b90555b60048501935190815193841161055157610e1c84610e168754612159565b87612474565b82601f8511600114610ee5575050937f76686aa361308f4a08557cca1a847299ce61e5602a3495cd359a599a1dca438c979593610e7e846001600160a01b03956005956109659b995f92610eda5750508160011b915f199060031b1c19161790565b90555b019251167fffffffffffffffffffffff00000000000000000000000000000000000000000074ff000000000000000000000000000000000000000084549351151560a01b169216171790556040519182913395836124c3565b015190508d806107fb565b91601f94939194198416865f52835f20935f905b828210610f67575050936109659997937f76686aa361308f4a08557cca1a847299ce61e5602a3495cd359a599a1dca438c9b9997936001600160a01b0397938360059810610f4f575b505050811b019055610e81565b01515f1960f88460031b161c191690558c8080610f42565b808886978294978701518155019601940190610ef9565b849291601f19831691855f52875f20925f5b89828210610fc65750508411610fae575b505050811b019055610df8565b01515f1960f88460031b161c191690558c8080610fa1565b8385015186558997909501949384019301610f90565b015190508e806107fb565b859291601f19831691855f52885f20925f5b8a82821061102f5750508411611017575b505050811b019055610dab565b01515f1960f88460031b161c191690558d808061100a565b8385015186558a97909501949384019301610ff9565b015190508f806107fb565b869291601f19831691855f52895f20925f5b8b8282106110985750508411611080575b505050811b019055610d5e565b01515f1960f88460031b161c191690558e8080611073565b8385015186558b97909501949384019301611062565b869291601f198316918c5f52895f20925f5b8b8282106110f657505084116110de575b505050811b018855610d12565b01515f1960f88460031b161c191690558e80806110d1565b8385015186558b979095019493840193016110c0565b60405162461bcd60e51b815260048101859052601e60248201527f436f6d70616e792070726f66696c6520616c72656164792065786973747300006044820152606490fd5b3461031c5761115f36612308565b949190939293335f52600160205261118360ff600660405f20015460201c1661256e565b335f526001602052600660405f20015460ff8160201c165f146113b557600163ffffffff809216019081116113a157975b6111bf36888461242e565b6111c891612722565b966111d436888461242e565b6111dd91612722565b926111e936888461242e565b6111f291612722565b936111fe36888461242e565b61120791612722565b9461121336888461242e565b61121c9161282e565b9536906112289261242e565b61123191612722565b9460405161123e81612191565b8181528260208201528360408201528460608201528560808201528660a082015263ffffffff881660c082015260e0810160018152335f52600160205260405f20825181556020830151600182015560408301516002820155606083015160038201556080830151600482015560a083015160058201556006019160c0015163ffffffff1663ffffffff198354161782555115156112f4919064ff00000000825491151560201b169064ff000000001916179055565b6112fe30826128f1565b61130830836128f1565b61131230846128f1565b61131c30856128f1565b61132630866128f1565b61133030876128f1565b3361133a916128f1565b33611344916128f1565b3361134e916128f1565b33611358916128f1565b33611362916128f1565b3361136c916128f1565b6040519063ffffffff168152339060207f91dc06cd8898708d38e986a8e345ffa874b4e25b4f763a73ffcdbff8934a76d991a2005b634e487b7160e01b5f52601160045260245ffd5b506001976111b4565b3461031c57604036600319011261031c576024356001600160a01b03811680910361031c576004355f52600460205260405f20905f5260205261014060405f2060ff8154916001810154906002810154600382015463ffffffff6004840154166005840154916006850154936008600787015496015496604051998a5260208a015260408901526060880152608087015260a086015260c085015260e0840152818116151561010084015260081c161515610120820152f35b3461031c57604036600319011261031c5760243567ffffffffffffffff80821161031c573660238301121561031c5781600401351161031c57366024826004013560051b8301011161031c57335f5260026020526114e160ff600560405f20015460a01c166123e2565b6004355f52600360205260405f209061150360ff600984015460201c166124ea565b336001600160a01b0383541603611926575f5b8160040135811061152357005b6004355f52600460205260405f206001600160a01b0361155361154e84866004013560248801612536565b61255a565b165f5260205260405f20906008918281015460ff81851c161590811561191b575b5061191157805460048601548115611901575b80156118ef575b60209060646001600160a01b035f80516020612a958339815191525416935f6040519586948593631d44e90160e21b8552600485015260248401528160448401525af190811561188e575f916118bb575b50611600611613916115fa600185015460058a0154906125ba565b9061266e565b6115fa60028401546006890154906125ba565b600382015490600787015482156118ab575b8015611899575b60209060646001600160a01b035f80516020612a958339815191525416945f604051968794859363f77f3f1d60e01b8552600485015260248401528160448401525af191821561188e575f92611857575b506001946116926117b594936117a39361266e565b60078401819055908301805460ff1916871790556116b030826128f1565b6116ce6116c861154e878a6004013560248c01612536565b826128f1565b6116e26001600160a01b03895416826128f1565b611791600584019161177c600684549601956117498754936117026129a6565b8115919061172490858385611849575b8715611839575b821561182f57612a41565b885561172e612958565b91869190611821575b8615611811575b821561180157612a41565b87556117563086546128f1565b6117613088546128f1565b61177661154e8a60048e013560248f01612536565b906128f1565b61177661154e888b6004013560248d01612536565b546001600160a01b03885416906128f1565b546001600160a01b03865416906128f1565b6001600160a01b036117d261154e83866004013560248801612536565b166004357fd7b1b9f0259fc34fff6ebd3274e6c6df17686d11290392a75623534e23edc0b65f80a35b01611516565b915061180b612958565b91612a41565b905061181b612958565b9061173e565b5061182a6129f4565b611737565b915061180b6129a6565b90506118436129a6565b90611719565b506118526129f4565b611712565b9291506020833d602011611886575b81611873602093836121c2565b8101031261031c5791519091600161167d565b3d9150611866565b6040513d5f823e3d90fd5b5060206118a4612958565b905061162c565b91506118b5612958565b91611625565b90506020813d6020116118e7575b816118d6602093836121c2565b8101031261031c57516116006115df565b3d91506118c9565b5060206118fa612958565b905061158e565b905061190b612958565b90611587565b50600191506117fb565b60ff91501686611574565b60405162461bcd60e51b815260206004820152600d60248201527f4e6f74206a6f62206f776e6572000000000000000000000000000000000000006044820152606490fd5b3461031c57602036600319011261031c576001600160a01b038061198d6122f2565b165f52600260205260e060405f209160ff6119a7846121e4565b93611a396119b7600183016121e4565b91611a2b6119c7600283016121e4565b611a1d6119d6600385016121e4565b91611a0f60056119e8600488016121e4565b96015497611a016040519d8d8f9e8f9081520190612286565b8c810360208e015290612286565b908a820360408c0152612286565b9088820360608a0152612286565b908682036080880152612286565b92811660a085015260a01c16151560c08301520390f35b3461031c5761016036600319011261031c5760043567ffffffffffffffff811161031c57611a829036906004016122c4565b90602490813567ffffffffffffffff811161031c57611aa59036906004016122c4565b6044359363ffffffff8516850361031c576064359463ffffffff8616860361031c576101043567ffffffffffffffff811161031c57611ae89036906004016122c4565b9390926101443563ffffffff8116810361031c57335f526002602052611b1a60ff600560405f20015460a01c166123e2565b335f526002602052611b3860ff600560405f20015460a01c166123e2565b4261012435111561202f5763ffffffff811615611fde575f54985f198a14611fcb5760018a015f55611b76611b6e36898961242e565b608435612722565b94611bba611bb2611b93611b8b368c8c61242e565b60a435612722565b98611baa611ba2368d8461242e565b60c435612722565b9a369161242e565b60e435612722565b98604051958661018081011067ffffffffffffffff61018089011117611fb85763ffffffff94939192611c118f948795938f611c059088966101808e016040528d339052369161242e565b60208c0152369161242e565b60408901521660608701521660808501528460a08501528560c08501528660e08501528761010085015261012435610120850152166101408301526001610160830152875f52600360205260405f20906001600160a01b038351167fffffffffffffffffffffffff0000000000000000000000000000000000000000835416178255602083015180519067ffffffffffffffff8211611fa557611cc482611cbb6001870154612159565b60018701612474565b602090601f8311600114611f3757611cf292915f9183610eda5750508160011b915f199060031b1c19161790565b60018301555b604083015180519167ffffffffffffffff8311611f245750918160209b979593611d368c9a989694611d2d6002860154612159565b60028601612474565b8c90601f8311600114611e7757611e619895611e4c611e4c9661016060097f0b2f02f963ce3223e85a994fcae7a7d92895415750c09ddf28dd2790f9247d959e9c98611da389611e4c9a611e539f9a611e4c9a5f92611e6c5750508160011b915f199060031b1c19161790565b60028201555b6003810163ffffffff60608601511681549067ffffffff00000000608088015160201b169167ffffffffffffffff19161717905560a0840151600482015560c0840151600582015560e0840151600682015561010084015160078201556101208401516008820155019163ffffffff6101408201511663ffffffff198454161783550151151564ff00000000825491151560201b169064ff000000001916179055565b30906128f1565b6040519182913396836124c3565b0390a3604051908152f35b015190505f806107fb565b90600284015f528d5f20915f5b601f1985168110611f0a575095611e4c611e4c9661016060097f0b2f02f963ce3223e85a994fcae7a7d92895415750c09ddf28dd2790f9247d959e9c986001611e619f9c99611e539e99611e4c99611e4c9c83601f19811610611ef2575b505050811b016002820155611da9565b01515f1960f88460031b161c191690555f8080611ee2565b8282015184558e9c50600190930192918f01918f01611e84565b634e487b7160e01b5f9081526041600452fd5b9190600185015f5260205f20905f935b601f1984168510611f8a576001945083601f19811610611f72575b505050811b016001830155611cf8565b01515f1960f88460031b161c191690558c8080611f62565b81810151835560209485019460019093019290910190611f47565b82634e487b7160e01b5f5260416004525ffd5b85634e487b7160e01b5f5260416004525ffd5b82634e487b7160e01b5f5260116004525ffd5b60405162461bcd60e51b8152602060048201528083018390527f566163616e637920636f756e74206d75737420626520677265617465722074686044820152630616e20360e41b6064820152608490fd5b60405162461bcd60e51b8152602060048201526010818401527f496e76616c696420646561646c696e65000000000000000000000000000000006044820152606490fd5b3461031c57602036600319011261031c576004355f52600360205260405f206001600160a01b038154166120a9600183016121e4565b9160ff6120b8600283016121e4565b60038301549263ffffffff90600481015460058201546006830154906007840154928561211460096008880154970154986121066040519e8f9e8f6101809181528160208201520190612286565b8d810360408f015290612286565b9981811660608d015260201c1660808b015260a08a015260c089015260e0880152610100870152610120860152811661014085015260201c1615156101608301520390f35b90600182811c92168015612187575b602083101461217357565b634e487b7160e01b5f52602260045260245ffd5b91607f1691612168565b610100810190811067ffffffffffffffff82111761055157604052565b67ffffffffffffffff811161055157604052565b90601f8019910116810190811067ffffffffffffffff82111761055157604052565b9060405191825f82546121f681612159565b908184526020946001916001811690815f146122645750600114612226575b505050612224925003836121c2565b565b5f90815285812095935091905b81831061224c57505061222493508201015f8080612215565b85548884018501529485019487945091830191612233565b9250505061222494925060ff191682840152151560051b8201015f8080612215565b91908251928382525f5b8481106122b0575050825f602080949584010152601f8019910116010190565b602081830181015184830182015201612290565b9181601f8401121561031c5782359167ffffffffffffffff831161031c576020838186019501011161031c57565b600435906001600160a01b038216820361031c57565b60e060031982011261031c57600435916024359160443591606435916084359160a4359160c4359067ffffffffffffffff821161031c5761234b916004016122c4565b9091565b60a060031982011261031c5760049067ffffffffffffffff823581811161031c578261237c9185016122c4565b9490949360243583811161031c57846123969183016122c4565b9490949360443581811161031c57826123b09185016122c4565b9490949360643583811161031c57846123ca9183016122c4565b9490949360843590811161031c5761234b92016122c4565b156123e957565b60405162461bcd60e51b815260206004820152601860248201527f436f6d70616e792070726f66696c6520726571756972656400000000000000006044820152606490fd5b92919267ffffffffffffffff82116105515760405191612458601f8201601f1916602001846121c2565b82948184528183011161031c578281602093845f960137010152565b601f821161248157505050565b5f5260205f20906020601f840160051c830193106124b9575b601f0160051c01905b8181106124ae575050565b5f81556001016124a3565b909150819061249a565b90918060409360208452816020850152848401375f828201840152601f01601f1916010190565b156124f157565b60405162461bcd60e51b815260206004820152600d60248201527f4a6f62206e6f7420666f756e64000000000000000000000000000000000000006044820152606490fd5b91908110156125465760051b0190565b634e487b7160e01b5f52603260045260245ffd5b356001600160a01b038116810361031c5790565b1561257557565b60405162461bcd60e51b815260206004820152601b60248201527f496e646976696475616c2070726f66696c6520726571756972656400000000006044820152606490fd5b90811561265e575b801561264c575b60209060646001600160a01b035f80516020612a958339815191525416935f6040519586948593631391547f60e01b8552600485015260248401528160448401525af190811561188e575f9161261d575090565b90506020813d602011612644575b81612638602093836121c2565b8101031261031c575190565b3d915061262b565b506020612657612958565b90506125c9565b9050612668612958565b906125c2565b9081156126e3575b80156126d1575b60209060646001600160a01b035f80516020612a958339815191525416935f604051958694859363d99882d560e01b8552600485015260248401528160448401525af190811561188e575f9161261d575090565b5060206126dc6129f4565b905061267d565b90506126ed6129f4565b90612676565b4660010361270057600190565b4662aa36a7036127105761271190565b617a69461461271d575f90565b5f1990565b91906020612775916001600160a01b0394855f80516020612a958339815191525416905f60405180968195829463045fc19560e11b84526004840152336024840152608060448401526084830190612286565b6004606483015203925af190811561188e575f916127fc575b5080927f9e7b61f58c47dc699ac88507c4f5bb9f121c03808c5676a8078fe583e46497005416803b1561031c57604051630f8e573b60e21b815260048101929092523360248301525f908290818381604481015b03925af1801561188e576127f35750565b612224906121ae565b90506020813d602011612826575b81612817602093836121c2565b8101031261031c57515f61278e565b3d915061280a565b91906020612881916001600160a01b0394855f80516020612a958339815191525416905f60405180968195829463045fc19560e11b84526004840152336024840152608060448401526084830190612286565b6008606483015203925af190811561188e575f916127fc575080927f9e7b61f58c47dc699ac88507c4f5bb9f121c03808c5676a8078fe583e46497005416803b1561031c57604051630f8e573b60e21b815260048101929092523360248301525f908290818381604481016127e2565b6001600160a01b037f9e7b61f58c47dc699ac88507c4f5bb9f121c03808c5676a8078fe583e4649700541691823b1561031c57604051635ca4b5b160e11b815260048101929092526001600160a01b03166024820152905f908290818381604481016127e2565b5f60206001600160a01b035f80516020612a958339815191525416604460405180948193639cd07acb60e01b8352816004840152600460248401525af190811561188e575f9161261d575090565b5f60206001600160a01b035f80516020612a958339815191525416604460405180948193639cd07acb60e01b8352816004840152600860248401525af190811561188e575f9161261d575090565b5f60206001600160a01b035f80516020612a958339815191525416604460405180948193639cd07acb60e01b83528160048401528160248401525af190811561188e575f9161261d575090565b9060646020925f6001600160a01b035f80516020612a9583398151915254166040519687958694637702dcff60e01b86526004860152602485015260448401525af190811561188e575f9161261d57509056fe9e7b61f58c47dc699ac88507c4f5bb9f121c03808c5676a8078fe583e4649701a164736f6c6343000818000a",
  "devdoc": {
    "kind": "dev",
    "methods": {},
    "version": 1
  },
  "userdoc": {
    "errors": {
      "ZamaProtocolUnsupported()": [
        {
          "notice": "Returned if the Zama protocol is not supported on the current chain"
        }
      ]
    },
    "kind": "user",
    "methods": {},
    "notice": "Confidential hiring protocol using Zama FHEVM - Individuals are private, companies are public",
    "version": 1
  },
  "storageLayout": {
    "storage": [
      {
        "astId": 39328,
        "contract": "contracts/FHEJunction.sol:FHEJunction",
        "label": "nextJobId",
        "offset": 0,
        "slot": "0",
        "type": "t_uint256"
      },
      {
        "astId": 39333,
        "contract": "contracts/FHEJunction.sol:FHEJunction",
        "label": "individuals",
        "offset": 0,
        "slot": "1",
        "type": "t_mapping(t_address,t_struct(IndividualProfile)39212_storage)"
      },
      {
        "astId": 39338,
        "contract": "contracts/FHEJunction.sol:FHEJunction",
        "label": "companies",
        "offset": 0,
        "slot": "2",
        "type": "t_mapping(t_address,t_struct(CompanyProfile)39227_storage)"
      },
      {
        "astId": 39343,
        "contract": "contracts/FHEJunction.sol:FHEJunction",
        "label": "jobs",
        "offset": 0,
        "slot": "3",
        "type": "t_mapping(t_uint256,t_struct(Job)39256_storage)"
      },
      {
        "astId": 39350,
        "contract": "contracts/FHEJunction.sol:FHEJunction",
        "label": "applications",
        "offset": 0,
        "slot": "4",
        "type": "t_mapping(t_uint256,t_mapping(t_address,t_struct(Application)39284_storage))"
      }
    ],
    "types": {
      "t_address": {
        "encoding": "inplace",
        "label": "address",
        "numberOfBytes": "20"
      },
      "t_bool": {
        "encoding": "inplace",
        "label": "bool",
        "numberOfBytes": "1"
      },
      "t_mapping(t_address,t_struct(Application)39284_storage)": {
        "encoding": "mapping",
        "key": "t_address",
        "label": "mapping(address => struct FHEJunction.Application)",
        "numberOfBytes": "32",
        "value": "t_struct(Application)39284_storage"
      },
      "t_mapping(t_address,t_struct(CompanyProfile)39227_storage)": {
        "encoding": "mapping",
        "key": "t_address",
        "label": "mapping(address => struct FHEJunction.CompanyProfile)",
        "numberOfBytes": "32",
        "value": "t_struct(CompanyProfile)39227_storage"
      },
      "t_mapping(t_address,t_struct(IndividualProfile)39212_storage)": {
        "encoding": "mapping",
        "key": "t_address",
        "label": "mapping(address => struct FHEJunction.IndividualProfile)",
        "numberOfBytes": "32",
        "value": "t_struct(IndividualProfile)39212_storage"
      },
      "t_mapping(t_uint256,t_mapping(t_address,t_struct(Application)39284_storage))": {
        "encoding": "mapping",
        "key": "t_uint256",
        "label": "mapping(uint256 => mapping(address => struct FHEJunction.Application))",
        "numberOfBytes": "32",
        "value": "t_mapping(t_address,t_struct(Application)39284_storage)"
      },
      "t_mapping(t_uint256,t_struct(Job)39256_storage)": {
        "encoding": "mapping",
        "key": "t_uint256",
        "label": "mapping(uint256 => struct FHEJunction.Job)",
        "numberOfBytes": "32",
        "value": "t_struct(Job)39256_storage"
      },
      "t_string_storage": {
        "encoding": "bytes",
        "label": "string",
        "numberOfBytes": "32"
      },
      "t_struct(Application)39284_storage": {
        "encoding": "inplace",
        "label": "struct FHEJunction.Application",
        "members": [
          {
            "astId": 39259,
            "contract": "contracts/FHEJunction.sol:FHEJunction",
            "label": "salary",
            "offset": 0,
            "slot": "0",
            "type": "t_userDefinedValueType(euint32)40432"
          },
          {
            "astId": 39262,
            "contract": "contracts/FHEJunction.sol:FHEJunction",
            "label": "experience",
            "offset": 0,
            "slot": "1",
            "type": "t_userDefinedValueType(euint32)40432"
          },
          {
            "astId": 39265,
            "contract": "contracts/FHEJunction.sol:FHEJunction",
            "label": "education",
            "offset": 0,
            "slot": "2",
            "type": "t_userDefinedValueType(euint32)40432"
          },
          {
            "astId": 39268,
            "contract": "contracts/FHEJunction.sol:FHEJunction",
            "label": "sex",
            "offset": 0,
            "slot": "3",
            "type": "t_userDefinedValueType(euint32)40432"
          },
          {
            "astId": 39270,
            "contract": "contracts/FHEJunction.sol:FHEJunction",
            "label": "profileVersion",
            "offset": 0,
            "slot": "4",
            "type": "t_uint32"
          },
          {
            "astId": 39273,
            "contract": "contracts/FHEJunction.sol:FHEJunction",
            "label": "contactEmail",
            "offset": 0,
            "slot": "5",
            "type": "t_userDefinedValueType(euint256)40488"
          },
          {
            "astId": 39276,
            "contract": "contracts/FHEJunction.sol:FHEJunction",
            "label": "contactPhone",
            "offset": 0,
            "slot": "6",
            "type": "t_userDefinedValueType(euint32)40432"
          },
          {
            "astId": 39279,
            "contract": "contracts/FHEJunction.sol:FHEJunction",
            "label": "eligible",
            "offset": 0,
            "slot": "7",
            "type": "t_userDefinedValueType(ebool)40424"
          },
          {
            "astId": 39281,
            "contract": "contracts/FHEJunction.sol:FHEJunction",
            "label": "evaluated",
            "offset": 0,
            "slot": "8",
            "type": "t_bool"
          },
          {
            "astId": 39283,
            "contract": "contracts/FHEJunction.sol:FHEJunction",
            "label": "applied",
            "offset": 1,
            "slot": "8",
            "type": "t_bool"
          }
        ],
        "numberOfBytes": "288"
      },
      "t_struct(CompanyProfile)39227_storage": {
        "encoding": "inplace",
        "label": "struct FHEJunction.CompanyProfile",
        "members": [
          {
            "astId": 39214,
            "contract": "contracts/FHEJunction.sol:FHEJunction",
            "label": "name",
            "offset": 0,
            "slot": "0",
            "type": "t_string_storage"
          },
          {
            "astId": 39216,
            "contract": "contracts/FHEJunction.sol:FHEJunction",
            "label": "industry",
            "offset": 0,
            "slot": "1",
            "type": "t_string_storage"
          },
          {
            "astId": 39218,
            "contract": "contracts/FHEJunction.sol:FHEJunction",
            "label": "website",
            "offset": 0,
            "slot": "2",
            "type": "t_string_storage"
          },
          {
            "astId": 39220,
            "contract": "contracts/FHEJunction.sol:FHEJunction",
            "label": "contactEmail",
            "offset": 0,
            "slot": "3",
            "type": "t_string_storage"
          },
          {
            "astId": 39222,
            "contract": "contracts/FHEJunction.sol:FHEJunction",
            "label": "location",
            "offset": 0,
            "slot": "4",
            "type": "t_string_storage"
          },
          {
            "astId": 39224,
            "contract": "contracts/FHEJunction.sol:FHEJunction",
            "label": "owner",
            "offset": 0,
            "slot": "5",
            "type": "t_address"
          },
          {
            "astId": 39226,
            "contract": "contracts/FHEJunction.sol:FHEJunction",
            "label": "exists",
            "offset": 20,
            "slot": "5",
            "type": "t_bool"
          }
        ],
        "numberOfBytes": "192"
      },
      "t_struct(IndividualProfile)39212_storage": {
        "encoding": "inplace",
        "label": "struct FHEJunction.IndividualProfile",
        "members": [
          {
            "astId": 39192,
            "contract": "contracts/FHEJunction.sol:FHEJunction",
            "label": "expectedSalary",
            "offset": 0,
            "slot": "0",
            "type": "t_userDefinedValueType(euint32)40432"
          },
          {
            "astId": 39195,
            "contract": "contracts/FHEJunction.sol:FHEJunction",
            "label": "experience",
            "offset": 0,
            "slot": "1",
            "type": "t_userDefinedValueType(euint32)40432"
          },
          {
            "astId": 39198,
            "contract": "contracts/FHEJunction.sol:FHEJunction",
            "label": "education",
            "offset": 0,
            "slot": "2",
            "type": "t_userDefinedValueType(euint32)40432"
          },
          {
            "astId": 39201,
            "contract": "contracts/FHEJunction.sol:FHEJunction",
            "label": "sex",
            "offset": 0,
            "slot": "3",
            "type": "t_userDefinedValueType(euint32)40432"
          },
          {
            "astId": 39204,
            "contract": "contracts/FHEJunction.sol:FHEJunction",
            "label": "contactEmail",
            "offset": 0,
            "slot": "4",
            "type": "t_userDefinedValueType(euint256)40488"
          },
          {
            "astId": 39207,
            "contract": "contracts/FHEJunction.sol:FHEJunction",
            "label": "contactPhone",
            "offset": 0,
            "slot": "5",
            "type": "t_userDefinedValueType(euint32)40432"
          },
          {
            "astId": 39209,
            "contract": "contracts/FHEJunction.sol:FHEJunction",
            "label": "version",
            "offset": 0,
            "slot": "6",
            "type": "t_uint32"
          },
          {
            "astId": 39211,
            "contract": "contracts/FHEJunction.sol:FHEJunction",
            "label": "exists",
            "offset": 4,
            "slot": "6",
            "type": "t_bool"
          }
        ],
        "numberOfBytes": "224"
      },
      "t_struct(Job)39256_storage": {
        "encoding": "inplace",
        "label": "struct FHEJunction.Job",
        "members": [
          {
            "astId": 39229,
            "contract": "contracts/FHEJunction.sol:FHEJunction",
            "label": "company",
            "offset": 0,
            "slot": "0",
            "type": "t_address"
          },
          {
            "astId": 39231,
            "contract": "contracts/FHEJunction.sol:FHEJunction",
            "label": "title",
            "offset": 0,
            "slot": "1",
            "type": "t_string_storage"
          },
          {
            "astId": 39233,
            "contract": "contracts/FHEJunction.sol:FHEJunction",
            "label": "location",
            "offset": 0,
            "slot": "2",
            "type": "t_string_storage"
          },
          {
            "astId": 39235,
            "contract": "contracts/FHEJunction.sol:FHEJunction",
            "label": "workPreference",
            "offset": 0,
            "slot": "3",
            "type": "t_uint32"
          },
          {
            "astId": 39237,
            "contract": "contracts/FHEJunction.sol:FHEJunction",
            "label": "primaryField",
            "offset": 4,
            "slot": "3",
            "type": "t_uint32"
          },
          {
            "astId": 39240,
            "contract": "contracts/FHEJunction.sol:FHEJunction",
            "label": "maxSalary",
            "offset": 0,
            "slot": "4",
            "type": "t_userDefinedValueType(euint32)40432"
          },
          {
            "astId": 39243,
            "contract": "contracts/FHEJunction.sol:FHEJunction",
            "label": "minExperience",
            "offset": 0,
            "slot": "5",
            "type": "t_userDefinedValueType(euint32)40432"
          },
          {
            "astId": 39246,
            "contract": "contracts/FHEJunction.sol:FHEJunction",
            "label": "minEducation",
            "offset": 0,
            "slot": "6",
            "type": "t_userDefinedValueType(euint32)40432"
          },
          {
            "astId": 39249,
            "contract": "contracts/FHEJunction.sol:FHEJunction",
            "label": "preferredSex",
            "offset": 0,
            "slot": "7",
            "type": "t_userDefinedValueType(euint32)40432"
          },
          {
            "astId": 39251,
            "contract": "contracts/FHEJunction.sol:FHEJunction",
            "label": "applicationDeadline",
            "offset": 0,
            "slot": "8",
            "type": "t_uint256"
          },
          {
            "astId": 39253,
            "contract": "contracts/FHEJunction.sol:FHEJunction",
            "label": "vacancyCount",
            "offset": 0,
            "slot": "9",
            "type": "t_uint32"
          },
          {
            "astId": 39255,
            "contract": "contracts/FHEJunction.sol:FHEJunction",
            "label": "exists",
            "offset": 4,
            "slot": "9",
            "type": "t_bool"
          }
        ],
        "numberOfBytes": "320"
      },
      "t_uint256": {
        "encoding": "inplace",
        "label": "uint256",
        "numberOfBytes": "32"
      },
      "t_uint32": {
        "encoding": "inplace",
        "label": "uint32",
        "numberOfBytes": "4"
      },
      "t_userDefinedValueType(ebool)40424": {
        "encoding": "inplace",
        "label": "ebool",
        "numberOfBytes": "32"
      },
      "t_userDefinedValueType(euint256)40488": {
        "encoding": "inplace",
        "label": "euint256",
        "numberOfBytes": "32"
      },
      "t_userDefinedValueType(euint32)40432": {
        "encoding": "inplace",
        "label": "euint32",
        "numberOfBytes": "32"
      }
    }
  }
}